{
  "contractName": "BrainYieldMembershipToken",
  "abi": [
    {
      "inputs": [],
      "stateMutability": "nonpayable",
      "type": "constructor"
    },
    {
      "anonymous": false,
      "inputs": [
        {
          "indexed": true,
          "internalType": "address",
          "name": "owner",
          "type": "address"
        },
        {
          "indexed": true,
          "internalType": "address",
          "name": "approved",
          "type": "address"
        },
        {
          "indexed": true,
          "internalType": "uint256",
          "name": "tokenId",
          "type": "uint256"
        }
      ],
      "name": "Approval",
      "type": "event"
    },
    {
      "anonymous": false,
      "inputs": [
        {
          "indexed": true,
          "internalType": "address",
          "name": "owner",
          "type": "address"
        },
        {
          "indexed": true,
          "internalType": "address",
          "name": "operator",
          "type": "address"
        },
        {
          "indexed": false,
          "internalType": "bool",
          "name": "approved",
          "type": "bool"
        }
      ],
      "name": "ApprovalForAll",
      "type": "event"
    },
    {
      "anonymous": false,
      "inputs": [
        {
          "indexed": true,
          "internalType": "address",
          "name": "previousOwner",
          "type": "address"
        },
        {
          "indexed": true,
          "internalType": "address",
          "name": "newOwner",
          "type": "address"
        }
      ],
      "name": "OwnershipTransferred",
      "type": "event"
    },
    {
      "anonymous": false,
      "inputs": [
        {
          "indexed": false,
          "internalType": "uint256",
          "name": "tokenId",
          "type": "uint256"
        },
        {
          "components": [
            {
              "internalType": "address payable",
              "name": "account",
              "type": "address"
            },
            {
              "internalType": "uint96",
              "name": "value",
              "type": "uint96"
            }
          ],
          "indexed": false,
          "internalType": "struct LibPart.Part[]",
          "name": "royalties",
          "type": "tuple[]"
        }
      ],
      "name": "RoyaltiesSet",
      "type": "event"
    },
    {
      "anonymous": false,
      "inputs": [
        {
          "indexed": true,
          "internalType": "address",
          "name": "from",
          "type": "address"
        },
        {
          "indexed": true,
          "internalType": "address",
          "name": "to",
          "type": "address"
        },
        {
          "indexed": true,
          "internalType": "uint256",
          "name": "tokenId",
          "type": "uint256"
        }
      ],
      "name": "Transfer",
      "type": "event"
    },
    {
      "inputs": [
        {
          "internalType": "address",
          "name": "to",
          "type": "address"
        },
        {
          "internalType": "uint256",
          "name": "tokenId",
          "type": "uint256"
        }
      ],
      "name": "approve",
      "outputs": [],
      "stateMutability": "nonpayable",
      "type": "function"
    },
    {
      "inputs": [
        {
          "internalType": "address",
          "name": "owner",
          "type": "address"
        }
      ],
      "name": "balanceOf",
      "outputs": [
        {
          "internalType": "uint256",
          "name": "",
          "type": "uint256"
        }
      ],
      "stateMutability": "view",
      "type": "function",
      "constant": true
    },
    {
      "inputs": [
        {
          "internalType": "uint256",
          "name": "tokenId",
          "type": "uint256"
        }
      ],
      "name": "getApproved",
      "outputs": [
        {
          "internalType": "address",
          "name": "",
          "type": "address"
        }
      ],
      "stateMutability": "view",
      "type": "function",
      "constant": true
    },
    {
      "inputs": [
        {
          "internalType": "uint256",
          "name": "id",
          "type": "uint256"
        }
      ],
      "name": "getRaribleV2Royalties",
      "outputs": [
        {
          "components": [
            {
              "internalType": "address payable",
              "name": "account",
              "type": "address"
            },
            {
              "internalType": "uint96",
              "name": "value",
              "type": "uint96"
            }
          ],
          "internalType": "struct LibPart.Part[]",
          "name": "",
          "type": "tuple[]"
        }
      ],
      "stateMutability": "view",
      "type": "function",
      "constant": true
    },
    {
      "inputs": [
        {
          "internalType": "address",
          "name": "owner",
          "type": "address"
        },
        {
          "internalType": "address",
          "name": "operator",
          "type": "address"
        }
      ],
      "name": "isApprovedForAll",
      "outputs": [
        {
          "internalType": "bool",
          "name": "",
          "type": "bool"
        }
      ],
      "stateMutability": "view",
      "type": "function",
      "constant": true
    },
    {
      "inputs": [],
      "name": "name",
      "outputs": [
        {
          "internalType": "string",
          "name": "",
          "type": "string"
        }
      ],
      "stateMutability": "view",
      "type": "function",
      "constant": true
    },
    {
      "inputs": [],
      "name": "owner",
      "outputs": [
        {
          "internalType": "address",
          "name": "",
          "type": "address"
        }
      ],
      "stateMutability": "view",
      "type": "function",
      "constant": true
    },
    {
      "inputs": [
        {
          "internalType": "uint256",
          "name": "tokenId",
          "type": "uint256"
        }
      ],
      "name": "ownerOf",
      "outputs": [
        {
          "internalType": "address",
          "name": "",
          "type": "address"
        }
      ],
      "stateMutability": "view",
      "type": "function",
      "constant": true
    },
    {
      "inputs": [],
      "name": "renounceOwnership",
      "outputs": [],
      "stateMutability": "nonpayable",
      "type": "function"
    },
    {
      "inputs": [
        {
          "internalType": "address",
          "name": "from",
          "type": "address"
        },
        {
          "internalType": "address",
          "name": "to",
          "type": "address"
        },
        {
          "internalType": "uint256",
          "name": "tokenId",
          "type": "uint256"
        }
      ],
      "name": "safeTransferFrom",
      "outputs": [],
      "stateMutability": "nonpayable",
      "type": "function"
    },
    {
      "inputs": [
        {
          "internalType": "address",
          "name": "from",
          "type": "address"
        },
        {
          "internalType": "address",
          "name": "to",
          "type": "address"
        },
        {
          "internalType": "uint256",
          "name": "tokenId",
          "type": "uint256"
        },
        {
          "internalType": "bytes",
          "name": "_data",
          "type": "bytes"
        }
      ],
      "name": "safeTransferFrom",
      "outputs": [],
      "stateMutability": "nonpayable",
      "type": "function"
    },
    {
      "inputs": [
        {
          "internalType": "address",
          "name": "operator",
          "type": "address"
        },
        {
          "internalType": "bool",
          "name": "approved",
          "type": "bool"
        }
      ],
      "name": "setApprovalForAll",
      "outputs": [],
      "stateMutability": "nonpayable",
      "type": "function"
    },
    {
      "inputs": [],
      "name": "symbol",
      "outputs": [
        {
          "internalType": "string",
          "name": "",
          "type": "string"
        }
      ],
      "stateMutability": "view",
      "type": "function",
      "constant": true
    },
    {
      "inputs": [
        {
          "internalType": "uint256",
          "name": "index",
          "type": "uint256"
        }
      ],
      "name": "tokenByIndex",
      "outputs": [
        {
          "internalType": "uint256",
          "name": "",
          "type": "uint256"
        }
      ],
      "stateMutability": "view",
      "type": "function",
      "constant": true
    },
    {
      "inputs": [
        {
          "internalType": "address",
          "name": "owner",
          "type": "address"
        },
        {
          "internalType": "uint256",
          "name": "index",
          "type": "uint256"
        }
      ],
      "name": "tokenOfOwnerByIndex",
      "outputs": [
        {
          "internalType": "uint256",
          "name": "",
          "type": "uint256"
        }
      ],
      "stateMutability": "view",
      "type": "function",
      "constant": true
    },
    {
      "inputs": [
        {
          "internalType": "uint256",
          "name": "tokenId",
          "type": "uint256"
        }
      ],
      "name": "tokenURI",
      "outputs": [
        {
          "internalType": "string",
          "name": "",
          "type": "string"
        }
      ],
      "stateMutability": "view",
      "type": "function",
      "constant": true
    },
    {
      "inputs": [],
      "name": "totalSupply",
      "outputs": [
        {
          "internalType": "uint256",
          "name": "",
          "type": "uint256"
        }
      ],
      "stateMutability": "view",
      "type": "function",
      "constant": true
    },
    {
      "inputs": [
        {
          "internalType": "address",
          "name": "from",
          "type": "address"
        },
        {
          "internalType": "address",
          "name": "to",
          "type": "address"
        },
        {
          "internalType": "uint256",
          "name": "tokenId",
          "type": "uint256"
        }
      ],
      "name": "transferFrom",
      "outputs": [],
      "stateMutability": "nonpayable",
      "type": "function"
    },
    {
      "inputs": [
        {
          "internalType": "address",
          "name": "newOwner",
          "type": "address"
        }
      ],
      "name": "transferOwnership",
      "outputs": [],
      "stateMutability": "nonpayable",
      "type": "function"
    },
    {
      "inputs": [
        {
          "internalType": "address",
          "name": "_to",
          "type": "address"
        }
      ],
      "name": "mint",
      "outputs": [],
      "stateMutability": "nonpayable",
      "type": "function"
    },
    {
      "inputs": [
        {
          "internalType": "uint256",
          "name": "_tokenID",
          "type": "uint256"
        },
        {
          "internalType": "address payable",
          "name": "_royaltiesRecipientAddress",
          "type": "address"
        },
        {
          "internalType": "uint96",
          "name": "_percentageBasisPoints",
          "type": "uint96"
        }
      ],
      "name": "setRoyalties",
      "outputs": [],
      "stateMutability": "nonpayable",
      "type": "function"
    },
    {
      "inputs": [
        {
          "internalType": "uint256",
          "name": "_tokenID",
          "type": "uint256"
        },
        {
          "internalType": "uint256",
          "name": "_salePrice",
          "type": "uint256"
        }
      ],
      "name": "royaltyInfo",
      "outputs": [
        {
          "internalType": "address",
          "name": "receiver",
          "type": "address"
        },
        {
          "internalType": "uint256",
          "name": "royaltyAmount",
          "type": "uint256"
        }
      ],
      "stateMutability": "view",
      "type": "function",
      "constant": true
    },
    {
      "inputs": [
        {
          "internalType": "bytes4",
          "name": "interfaceID",
          "type": "bytes4"
        }
      ],
      "name": "supportsInterface",
      "outputs": [
        {
          "internalType": "bool",
          "name": "",
          "type": "bool"
        }
      ],
      "stateMutability": "view",
      "type": "function",
      "constant": true
    },
    {
      "inputs": [
        {
          "internalType": "address",
          "name": "_walletAddress",
          "type": "address"
        }
      ],
      "name": "isMember",
      "outputs": [
        {
          "internalType": "bool",
          "name": "",
          "type": "bool"
        }
      ],
      "stateMutability": "view",
      "type": "function",
      "constant": true
    }
  ],
  "bytecode": "0x60806040523480156200001157600080fd5b506040518060400160405280601481526020017f427261696e5969656c644d656d626572736869700000000000000000000000008152506040518060400160405280600381526020017f42594d0000000000000000000000000000000000000000000000000000000000815250816000908051906020019062000096929190620001a6565b508060019080519060200190620000af929190620001a6565b505050620000d2620000c6620000d860201b60201c565b620000e060201b60201c565b620002bb565b600033905090565b6000600a60009054906101000a900473ffffffffffffffffffffffffffffffffffffffff16905081600a60006101000a81548173ffffffffffffffffffffffffffffffffffffffff021916908373ffffffffffffffffffffffffffffffffffffffff1602179055508173ffffffffffffffffffffffffffffffffffffffff168173ffffffffffffffffffffffffffffffffffffffff167f8be0079c531659141344cd1fd0a4f28419497f9722a3daafe3b4186f6b6457e060405160405180910390a35050565b828054620001b49062000256565b90600052602060002090601f016020900481019282620001d8576000855562000224565b82601f10620001f357805160ff191683800117855562000224565b8280016001018555821562000224579182015b828111156200022357825182559160200191906001019062000206565b5b50905062000233919062000237565b5090565b5b808211156200025257600081600090555060010162000238565b5090565b600060028204905060018216806200026f57607f821691505b602082108114156200028657620002856200028c565b5b50919050565b7f4e487b7100000000000000000000000000000000000000000000000000000000600052602260045260246000fd5b61408780620002cb6000396000f3fe608060405234801561001057600080fd5b50600436106101585760003560e01c80636a627842116100c3578063a230c5241161007c578063a230c524146103d8578063b88d4fde14610408578063c87b56dd14610424578063cad96cca14610454578063e985e9c514610484578063f2fde38b146104b457610158565b80636a6278421461032a57806370a0823114610346578063715018a6146103765780638da5cb5b1461038057806395d89b411461039e578063a22cb465146103bc57610158565b806323b872dd1161011557806323b872dd146102315780632a55205a1461024d5780632f745c591461027e57806342842e0e146102ae5780634f6ccce7146102ca5780636352211e146102fa57610158565b806301ffc9a71461015d57806306fdde031461018d578063081812fc146101ab578063095ea7b3146101db578063143094db146101f757806318160ddd14610213575b600080fd5b61017760048036038101906101729190612d43565b6104d0565b604051610184919061382c565b60405180910390f35b61019561058f565b6040516101a29190613847565b60405180910390f35b6101c560048036038101906101c09190612d95565b610621565b6040516101d2919061377a565b60405180910390f35b6101f560048036038101906101f09190612d07565b6106a6565b005b610211600480360381019061020c9190612dbe565b6107be565b005b61021b6109ab565b6040516102289190613b09565b60405180910390f35b61024b60048036038101906102469190612c01565b6109b8565b005b61026760048036038101906102629190612e0d565b610a18565b6040516102759291906137e1565b60405180910390f35b61029860048036038101906102939190612d07565b610bee565b6040516102a59190613b09565b60405180910390f35b6102c860048036038101906102c39190612c01565b610c93565b005b6102e460048036038101906102df9190612d95565b610cb3565b6040516102f19190613b09565b60405180910390f35b610314600480360381019061030f9190612d95565b610d4a565b604051610321919061377a565b60405180910390f35b610344600480360381019061033f9190612b9c565b610dfc565b005b610360600480360381019061035b9190612b9c565b610e98565b60405161036d9190613b09565b60405180910390f35b61037e610f50565b005b610388610fd8565b604051610395919061377a565b60405180910390f35b6103a6611002565b6040516103b39190613847565b60405180910390f35b6103d660048036038101906103d19190612ccb565b611094565b005b6103f260048036038101906103ed9190612b9c565b6110aa565b6040516103ff919061382c565b60405180910390f35b610422600480360381019061041d9190612c50565b6110be565b005b61043e60048036038101906104399190612d95565b611120565b60405161044b9190613847565b60405180910390f35b61046e60048036038101906104699190612d95565b6111c7565b60405161047b919061380a565b60405180910390f35b61049e60048036038101906104999190612bc5565b6112c9565b6040516104ab919061382c565b60405180910390f35b6104ce60048036038101906104c99190612b9c565b61135d565b005b600063cad96cca60e01b7bffffffffffffffffffffffffffffffffffffffffffffffffffffffff1916827bffffffffffffffffffffffffffffffffffffffffffffffffffffffff19161415610528576001905061058a565b632a55205a60e01b7bffffffffffffffffffffffffffffffffffffffffffffffffffffffff1916827bffffffffffffffffffffffffffffffffffffffffffffffffffffffff1916141561057e576001905061058a565b61058782611455565b90505b919050565b60606000805461059e90613e26565b80601f01602080910402602001604051908101604052809291908181526020018280546105ca90613e26565b80156106175780601f106105ec57610100808354040283529160200191610617565b820191906000526020600020905b8154815290600101906020018083116105fa57829003601f168201915b5050505050905090565b600061062c826114cf565b61066b576040517f08c379a0000000000000000000000000000000000000000000000000000000008152600401610662906139e9565b60405180910390fd5b6004600083815260200190815260200160002060009054906101000a900473ffffffffffffffffffffffffffffffffffffffff169050919050565b60006106b182610d4a565b90508073ffffffffffffffffffffffffffffffffffffffff168373ffffffffffffffffffffffffffffffffffffffff161415610722576040517f08c379a000000000000000000000000000000000000000000000000000000000815260040161071990613a69565b60405180910390fd5b8073ffffffffffffffffffffffffffffffffffffffff1661074161153b565b73ffffffffffffffffffffffffffffffffffffffff161480610770575061076f8161076a61153b565b6112c9565b5b6107af576040517f08c379a00000000000000000000000000000000000000000000000000000000081526004016107a690613969565b60405180910390fd5b6107b98383611543565b505050565b6107c661153b565b73ffffffffffffffffffffffffffffffffffffffff166107e4610fd8565b73ffffffffffffffffffffffffffffffffffffffff161461083a576040517f08c379a000000000000000000000000000000000000000000000000000000000815260040161083190613a09565b60405180910390fd5b6000600167ffffffffffffffff81111561087d577f4e487b7100000000000000000000000000000000000000000000000000000000600052604160045260246000fd5b6040519080825280602002602001820160405280156108b657816020015b6108a3612a63565b81526020019060019003908161089b5790505b50905081816000815181106108f4577f4e487b7100000000000000000000000000000000000000000000000000000000600052603260045260246000fd5b6020026020010151602001906bffffffffffffffffffffffff1690816bffffffffffffffffffffffff1681525050828160008151811061095d577f4e487b7100000000000000000000000000000000000000000000000000000000600052603260045260246000fd5b60200260200101516000019073ffffffffffffffffffffffffffffffffffffffff16908173ffffffffffffffffffffffffffffffffffffffff16815250506109a584826115fc565b50505050565b6000600880549050905090565b6109c96109c361153b565b82611917565b610a08576040517f08c379a00000000000000000000000000000000000000000000000000000000081526004016109ff90613a89565b60405180910390fd5b610a138383836119f5565b505050565b6000806000600b6000868152602001908152602001600020805480602002602001604051908101604052809291908181526020016000905b82821015610b12578382906000526020600020016040518060400160405290816000820160009054906101000a900473ffffffffffffffffffffffffffffffffffffffff1673ffffffffffffffffffffffffffffffffffffffff1673ffffffffffffffffffffffffffffffffffffffff1681526020016000820160149054906101000a90046bffffffffffffffffffffffff166bffffffffffffffffffffffff166bffffffffffffffffffffffff168152505081526020019060010190610a50565b505050509050600081511115610bde5780600081518110610b5c577f4e487b7100000000000000000000000000000000000000000000000000000000600052603260045260246000fd5b60200260200101516000015161271082600081518110610ba5577f4e487b7100000000000000000000000000000000000000000000000000000000600052603260045260246000fd5b6020026020010151602001516bffffffffffffffffffffffff1686610bca9190613cb8565b610bd49190613c87565b9250925050610be7565b60008092509250505b9250929050565b6000610bf983610e98565b8210610c3a576040517f08c379a0000000000000000000000000000000000000000000000000000000008152600401610c3190613869565b60405180910390fd5b600660008473ffffffffffffffffffffffffffffffffffffffff1673ffffffffffffffffffffffffffffffffffffffff168152602001908152602001600020600083815260200190815260200160002054905092915050565b610cae838383604051806020016040528060008152506110be565b505050565b6000610cbd6109ab565b8210610cfe576040517f08c379a0000000000000000000000000000000000000000000000000000000008152600401610cf590613aa9565b60405180910390fd5b60088281548110610d38577f4e487b7100000000000000000000000000000000000000000000000000000000600052603260045260246000fd5b90600052602060002001549050919050565b6000806002600084815260200190815260200160002060009054906101000a900473ffffffffffffffffffffffffffffffffffffffff169050600073ffffffffffffffffffffffffffffffffffffffff168173ffffffffffffffffffffffffffffffffffffffff161415610df3576040517f08c379a0000000000000000000000000000000000000000000000000000000008152600401610dea906139a9565b60405180910390fd5b80915050919050565b610e0461153b565b73ffffffffffffffffffffffffffffffffffffffff16610e22610fd8565b73ffffffffffffffffffffffffffffffffffffffff1614610e78576040517f08c379a0000000000000000000000000000000000000000000000000000000008152600401610e6f90613a09565b60405180910390fd5b610e8b81610e86600c611c51565b611c5f565b610e95600c611e2d565b50565b60008073ffffffffffffffffffffffffffffffffffffffff168273ffffffffffffffffffffffffffffffffffffffff161415610f09576040517f08c379a0000000000000000000000000000000000000000000000000000000008152600401610f0090613989565b60405180910390fd5b600360008373ffffffffffffffffffffffffffffffffffffffff1673ffffffffffffffffffffffffffffffffffffffff168152602001908152602001600020549050919050565b610f5861153b565b73ffffffffffffffffffffffffffffffffffffffff16610f76610fd8565b73ffffffffffffffffffffffffffffffffffffffff1614610fcc576040517f08c379a0000000000000000000000000000000000000000000000000000000008152600401610fc390613a09565b60405180910390fd5b610fd66000611e43565b565b6000600a60009054906101000a900473ffffffffffffffffffffffffffffffffffffffff16905090565b60606001805461101190613e26565b80601f016020809104026020016040519081016040528092919081815260200182805461103d90613e26565b801561108a5780601f1061105f5761010080835404028352916020019161108a565b820191906000526020600020905b81548152906001019060200180831161106d57829003601f168201915b5050505050905090565b6110a661109f61153b565b8383611f09565b5050565b6000806110b683610e98565b119050919050565b6110cf6110c961153b565b83611917565b61110e576040517f08c379a000000000000000000000000000000000000000000000000000000000815260040161110590613a89565b60405180910390fd5b61111a84848484612076565b50505050565b606061112b826114cf565b61116a576040517f08c379a000000000000000000000000000000000000000000000000000000000815260040161116190613a49565b60405180910390fd5b60006111746120d2565b9050600081511161119457604051806020016040528060008152506111bf565b8061119e846120f2565b6040516020016111af929190613756565b6040516020818303038152906040525b915050919050565b6060600b6000838152602001908152602001600020805480602002602001604051908101604052809291908181526020016000905b828210156112be578382906000526020600020016040518060400160405290816000820160009054906101000a900473ffffffffffffffffffffffffffffffffffffffff1673ffffffffffffffffffffffffffffffffffffffff1673ffffffffffffffffffffffffffffffffffffffff1681526020016000820160149054906101000a90046bffffffffffffffffffffffff166bffffffffffffffffffffffff166bffffffffffffffffffffffff1681525050815260200190600101906111fc565b505050509050919050565b6000600560008473ffffffffffffffffffffffffffffffffffffffff1673ffffffffffffffffffffffffffffffffffffffff16815260200190815260200160002060008373ffffffffffffffffffffffffffffffffffffffff1673ffffffffffffffffffffffffffffffffffffffff16815260200190815260200160002060009054906101000a900460ff16905092915050565b61136561153b565b73ffffffffffffffffffffffffffffffffffffffff16611383610fd8565b73ffffffffffffffffffffffffffffffffffffffff16146113d9576040517f08c379a00000000000000000000000000000000000000000000000000000000081526004016113d090613a09565b60405180910390fd5b600073ffffffffffffffffffffffffffffffffffffffff168173ffffffffffffffffffffffffffffffffffffffff161415611449576040517f08c379a0000000000000000000000000000000000000000000000000000000008152600401611440906138a9565b60405180910390fd5b61145281611e43565b50565b60007f780e9d63000000000000000000000000000000000000000000000000000000007bffffffffffffffffffffffffffffffffffffffffffffffffffffffff1916827bffffffffffffffffffffffffffffffffffffffffffffffffffffffff191614806114c857506114c78261229f565b5b9050919050565b60008073ffffffffffffffffffffffffffffffffffffffff166002600084815260200190815260200160002060009054906101000a900473ffffffffffffffffffffffffffffffffffffffff1673ffffffffffffffffffffffffffffffffffffffff1614159050919050565b600033905090565b816004600083815260200190815260200160002060006101000a81548173ffffffffffffffffffffffffffffffffffffffff021916908373ffffffffffffffffffffffffffffffffffffffff160217905550808273ffffffffffffffffffffffffffffffffffffffff166115b683610d4a565b73ffffffffffffffffffffffffffffffffffffffff167f8c5be1e5ebec7d5bd14f71427d1e84f3dd0314c0f7b2291e5b200ac8c7c3b92560405160405180910390a45050565b600080600090505b82518110156118c357600073ffffffffffffffffffffffffffffffffffffffff1683828151811061165e577f4e487b7100000000000000000000000000000000000000000000000000000000600052603260045260246000fd5b60200260200101516000015173ffffffffffffffffffffffffffffffffffffffff1614156116c1576040517f08c379a00000000000000000000000000000000000000000000000000000000081526004016116b890613ae9565b60405180910390fd5b60008382815181106116fc577f4e487b7100000000000000000000000000000000000000000000000000000000600052603260045260246000fd5b6020026020010151602001516bffffffffffffffffffffffff161415611757576040517f08c379a000000000000000000000000000000000000000000000000000000000815260040161174e90613949565b60405180910390fd5b828181518110611790577f4e487b7100000000000000000000000000000000000000000000000000000000600052603260045260246000fd5b6020026020010151602001516bffffffffffffffffffffffff16826117b59190613c31565b9150600b6000858152602001908152602001600020838281518110611803577f4e487b7100000000000000000000000000000000000000000000000000000000600052603260045260246000fd5b60200260200101519080600181540180825580915050600190039060005260206000200160009091909190915060008201518160000160006101000a81548173ffffffffffffffffffffffffffffffffffffffff021916908373ffffffffffffffffffffffffffffffffffffffff16021790555060208201518160000160146101000a8154816bffffffffffffffffffffffff02191690836bffffffffffffffffffffffff160217905550505080806118bb90613e58565b915050611604565b506127108110611908576040517f08c379a00000000000000000000000000000000000000000000000000000000081526004016118ff90613ac9565b60405180910390fd5b6119128383612381565b505050565b6000611922826114cf565b611961576040517f08c379a000000000000000000000000000000000000000000000000000000000815260040161195890613929565b60405180910390fd5b600061196c83610d4a565b90508073ffffffffffffffffffffffffffffffffffffffff168473ffffffffffffffffffffffffffffffffffffffff1614806119db57508373ffffffffffffffffffffffffffffffffffffffff166119c384610621565b73ffffffffffffffffffffffffffffffffffffffff16145b806119ec57506119eb81856112c9565b5b91505092915050565b8273ffffffffffffffffffffffffffffffffffffffff16611a1582610d4a565b73ffffffffffffffffffffffffffffffffffffffff1614611a6b576040517f08c379a0000000000000000000000000000000000000000000000000000000008152600401611a6290613a29565b60405180910390fd5b600073ffffffffffffffffffffffffffffffffffffffff168273ffffffffffffffffffffffffffffffffffffffff161415611adb576040517f08c379a0000000000000000000000000000000000000000000000000000000008152600401611ad2906138e9565b60405180910390fd5b611ae68383836123be565b611af1600082611543565b6001600360008573ffffffffffffffffffffffffffffffffffffffff1673ffffffffffffffffffffffffffffffffffffffff1681526020019081526020016000206000828254611b419190613d12565b925050819055506001600360008473ffffffffffffffffffffffffffffffffffffffff1673ffffffffffffffffffffffffffffffffffffffff1681526020019081526020016000206000828254611b989190613c31565b92505081905550816002600083815260200190815260200160002060006101000a81548173ffffffffffffffffffffffffffffffffffffffff021916908373ffffffffffffffffffffffffffffffffffffffff160217905550808273ffffffffffffffffffffffffffffffffffffffff168473ffffffffffffffffffffffffffffffffffffffff167fddf252ad1be2c89b69c2b068fc378daa952ba7f163c4a11628f55a4df523b3ef60405160405180910390a4505050565b600081600001549050919050565b600073ffffffffffffffffffffffffffffffffffffffff168273ffffffffffffffffffffffffffffffffffffffff161415611ccf576040517f08c379a0000000000000000000000000000000000000000000000000000000008152600401611cc6906139c9565b60405180910390fd5b611cd8816114cf565b15611d18576040517f08c379a0000000000000000000000000000000000000000000000000000000008152600401611d0f906138c9565b60405180910390fd5b611d24600083836123be565b6001600360008473ffffffffffffffffffffffffffffffffffffffff1673ffffffffffffffffffffffffffffffffffffffff1681526020019081526020016000206000828254611d749190613c31565b92505081905550816002600083815260200190815260200160002060006101000a81548173ffffffffffffffffffffffffffffffffffffffff021916908373ffffffffffffffffffffffffffffffffffffffff160217905550808273ffffffffffffffffffffffffffffffffffffffff16600073ffffffffffffffffffffffffffffffffffffffff167fddf252ad1be2c89b69c2b068fc378daa952ba7f163c4a11628f55a4df523b3ef60405160405180910390a45050565b6001816000016000828254019250508190555050565b6000600a60009054906101000a900473ffffffffffffffffffffffffffffffffffffffff16905081600a60006101000a81548173ffffffffffffffffffffffffffffffffffffffff021916908373ffffffffffffffffffffffffffffffffffffffff1602179055508173ffffffffffffffffffffffffffffffffffffffff168173ffffffffffffffffffffffffffffffffffffffff167f8be0079c531659141344cd1fd0a4f28419497f9722a3daafe3b4186f6b6457e060405160405180910390a35050565b8173ffffffffffffffffffffffffffffffffffffffff168373ffffffffffffffffffffffffffffffffffffffff161415611f78576040517f08c379a0000000000000000000000000000000000000000000000000000000008152600401611f6f90613909565b60405180910390fd5b80600560008573ffffffffffffffffffffffffffffffffffffffff1673ffffffffffffffffffffffffffffffffffffffff16815260200190815260200160002060008473ffffffffffffffffffffffffffffffffffffffff1673ffffffffffffffffffffffffffffffffffffffff16815260200190815260200160002060006101000a81548160ff0219169083151502179055508173ffffffffffffffffffffffffffffffffffffffff168373ffffffffffffffffffffffffffffffffffffffff167f17307eab39ab6107e8899845ad3d59bd9653f200f220920489ca2b5937696c3183604051612069919061382c565b60405180910390a3505050565b6120818484846119f5565b61208d848484846124d2565b6120cc576040517f08c379a00000000000000000000000000000000000000000000000000000000081526004016120c390613889565b60405180910390fd5b50505050565b606060405180606001604052806028815260200161402a60289139905090565b6060600082141561213a576040518060400160405280600181526020017f3000000000000000000000000000000000000000000000000000000000000000815250905061229a565b600082905060005b6000821461216c57808061215590613e58565b915050600a826121659190613c87565b9150612142565b60008167ffffffffffffffff8111156121ae577f4e487b7100000000000000000000000000000000000000000000000000000000600052604160045260246000fd5b6040519080825280601f01601f1916602001820160405280156121e05781602001600182028036833780820191505090505b5090505b60008514612293576001826121f99190613d12565b9150600a856122089190613ea1565b60306122149190613c31565b60f81b818381518110612250577f4e487b7100000000000000000000000000000000000000000000000000000000600052603260045260246000fd5b60200101907effffffffffffffffffffffffffffffffffffffffffffffffffffffffffffff1916908160001a905350600a8561228c9190613c87565b94506121e4565b8093505050505b919050565b60007f80ac58cd000000000000000000000000000000000000000000000000000000007bffffffffffffffffffffffffffffffffffffffffffffffffffffffff1916827bffffffffffffffffffffffffffffffffffffffffffffffffffffffff1916148061236a57507f5b5e139f000000000000000000000000000000000000000000000000000000007bffffffffffffffffffffffffffffffffffffffffffffffffffffffff1916827bffffffffffffffffffffffffffffffffffffffffffffffffffffffff1916145b8061237a575061237982612669565b5b9050919050565b7f3fa96d7b6bcbfe71ef171666d84db3cf52fa2d1c8afdb1cc8e486177f208b7df82826040516123b2929190613b24565b60405180910390a15050565b6123c98383836126d3565b600073ffffffffffffffffffffffffffffffffffffffff168373ffffffffffffffffffffffffffffffffffffffff16141561240c57612407816126d8565b61244b565b8173ffffffffffffffffffffffffffffffffffffffff168373ffffffffffffffffffffffffffffffffffffffff161461244a576124498382612721565b5b5b600073ffffffffffffffffffffffffffffffffffffffff168273ffffffffffffffffffffffffffffffffffffffff16141561248e576124898161288e565b6124cd565b8273ffffffffffffffffffffffffffffffffffffffff168273ffffffffffffffffffffffffffffffffffffffff16146124cc576124cb82826129d1565b5b5b505050565b60006124f38473ffffffffffffffffffffffffffffffffffffffff16612a50565b1561265c578373ffffffffffffffffffffffffffffffffffffffff1663150b7a0261251c61153b565b8786866040518563ffffffff1660e01b815260040161253e9493929190613795565b602060405180830381600087803b15801561255857600080fd5b505af192505050801561258957506040513d601f19601f820116820180604052508101906125869190612d6c565b60015b61260c573d80600081146125b9576040519150601f19603f3d011682016040523d82523d6000602084013e6125be565b606091505b50600081511415612604576040517f08c379a00000000000000000000000000000000000000000000000000000000081526004016125fb90613889565b60405180910390fd5b805181602001fd5b63150b7a0260e01b7bffffffffffffffffffffffffffffffffffffffffffffffffffffffff1916817bffffffffffffffffffffffffffffffffffffffffffffffffffffffff191614915050612661565b600190505b949350505050565b60007f01ffc9a7000000000000000000000000000000000000000000000000000000007bffffffffffffffffffffffffffffffffffffffffffffffffffffffff1916827bffffffffffffffffffffffffffffffffffffffffffffffffffffffff1916149050919050565b505050565b6008805490506009600083815260200190815260200160002081905550600881908060018154018082558091505060019003906000526020600020016000909190919091505550565b6000600161272e84610e98565b6127389190613d12565b905060006007600084815260200190815260200160002054905081811461281d576000600660008673ffffffffffffffffffffffffffffffffffffffff1673ffffffffffffffffffffffffffffffffffffffff168152602001908152602001600020600084815260200190815260200160002054905080600660008773ffffffffffffffffffffffffffffffffffffffff1673ffffffffffffffffffffffffffffffffffffffff168152602001908152602001600020600084815260200190815260200160002081905550816007600083815260200190815260200160002081905550505b6007600084815260200190815260200160002060009055600660008573ffffffffffffffffffffffffffffffffffffffff1673ffffffffffffffffffffffffffffffffffffffff16815260200190815260200160002060008381526020019081526020016000206000905550505050565b600060016008805490506128a29190613d12565b90506000600960008481526020019081526020016000205490506000600883815481106128f8577f4e487b7100000000000000000000000000000000000000000000000000000000600052603260045260246000fd5b906000526020600020015490508060088381548110612940577f4e487b7100000000000000000000000000000000000000000000000000000000600052603260045260246000fd5b9060005260206000200181905550816009600083815260200190815260200160002081905550600960008581526020019081526020016000206000905560088054806129b5577f4e487b7100000000000000000000000000000000000000000000000000000000600052603160045260246000fd5b6001900381819060005260206000200160009055905550505050565b60006129dc83610e98565b905081600660008573ffffffffffffffffffffffffffffffffffffffff1673ffffffffffffffffffffffffffffffffffffffff168152602001908152602001600020600083815260200190815260200160002081905550806007600084815260200190815260200160002081905550505050565b600080823b905060008111915050919050565b6040518060400160405280600073ffffffffffffffffffffffffffffffffffffffff16815260200160006bffffffffffffffffffffffff1681525090565b6000612ab4612aaf84613b85565b613b54565b905082815260208101848484011115612acc57600080fd5b612ad7848285613de4565b509392505050565b600081359050612aee81613f9f565b92915050565b600081359050612b0381613fb6565b92915050565b600081359050612b1881613fcd565b92915050565b600081359050612b2d81613fe4565b92915050565b600081519050612b4281613fe4565b92915050565b600082601f830112612b5957600080fd5b8135612b69848260208601612aa1565b91505092915050565b600081359050612b8181613ffb565b92915050565b600081359050612b9681614012565b92915050565b600060208284031215612bae57600080fd5b6000612bbc84828501612adf565b91505092915050565b60008060408385031215612bd857600080fd5b6000612be685828601612adf565b9250506020612bf785828601612adf565b9150509250929050565b600080600060608486031215612c1657600080fd5b6000612c2486828701612adf565b9350506020612c3586828701612adf565b9250506040612c4686828701612b72565b9150509250925092565b60008060008060808587031215612c6657600080fd5b6000612c7487828801612adf565b9450506020612c8587828801612adf565b9350506040612c9687828801612b72565b925050606085013567ffffffffffffffff811115612cb357600080fd5b612cbf87828801612b48565b91505092959194509250565b60008060408385031215612cde57600080fd5b6000612cec85828601612adf565b9250506020612cfd85828601612b09565b9150509250929050565b60008060408385031215612d1a57600080fd5b6000612d2885828601612adf565b9250506020612d3985828601612b72565b9150509250929050565b600060208284031215612d5557600080fd5b6000612d6384828501612b1e565b91505092915050565b600060208284031215612d7e57600080fd5b6000612d8c84828501612b33565b91505092915050565b600060208284031215612da757600080fd5b6000612db584828501612b72565b91505092915050565b600080600060608486031215612dd357600080fd5b6000612de186828701612b72565b9350506020612df286828701612af4565b9250506040612e0386828701612b87565b9150509250925092565b60008060408385031215612e2057600080fd5b6000612e2e85828601612b72565b9250506020612e3f85828601612b72565b9150509250929050565b6000612e558383613709565b60408301905092915050565b612e6a81613d58565b82525050565b612e7981613d46565b82525050565b6000612e8a82613bc5565b612e948185613bf3565b9350612e9f83613bb5565b8060005b83811015612ed0578151612eb78882612e49565b9750612ec283613be6565b925050600181019050612ea3565b5085935050505092915050565b612ee681613d6a565b82525050565b6000612ef782613bd0565b612f018185613c04565b9350612f11818560208601613df3565b612f1a81613f8e565b840191505092915050565b6000612f3082613bdb565b612f3a8185613c15565b9350612f4a818560208601613df3565b612f5381613f8e565b840191505092915050565b6000612f6982613bdb565b612f738185613c26565b9350612f83818560208601613df3565b80840191505092915050565b6000612f9c602b83613c15565b91507f455243373231456e756d657261626c653a206f776e657220696e646578206f7560008301527f74206f6620626f756e64730000000000000000000000000000000000000000006020830152604082019050919050565b6000613002603283613c15565b91507f4552433732313a207472616e7366657220746f206e6f6e20455243373231526560008301527f63656976657220696d706c656d656e74657200000000000000000000000000006020830152604082019050919050565b6000613068602683613c15565b91507f4f776e61626c653a206e6577206f776e657220697320746865207a65726f206160008301527f64647265737300000000000000000000000000000000000000000000000000006020830152604082019050919050565b60006130ce601c83613c15565b91507f4552433732313a20746f6b656e20616c7265616479206d696e746564000000006000830152602082019050919050565b600061310e602483613c15565b91507f4552433732313a207472616e7366657220746f20746865207a65726f2061646460008301527f72657373000000000000000000000000000000000000000000000000000000006020830152604082019050919050565b6000613174601983613c15565b91507f4552433732313a20617070726f766520746f2063616c6c6572000000000000006000830152602082019050919050565b60006131b4602c83613c15565b91507f4552433732313a206f70657261746f7220717565727920666f72206e6f6e657860008301527f697374656e7420746f6b656e00000000000000000000000000000000000000006020830152604082019050919050565b600061321a602083613c15565b91507f526f79616c74792076616c75652073686f756c6420626520706f7369746976656000830152602082019050919050565b600061325a603883613c15565b91507f4552433732313a20617070726f76652063616c6c6572206973206e6f74206f7760008301527f6e6572206e6f7220617070726f76656420666f7220616c6c00000000000000006020830152604082019050919050565b60006132c0602a83613c15565b91507f4552433732313a2062616c616e636520717565727920666f7220746865207a6560008301527f726f2061646472657373000000000000000000000000000000000000000000006020830152604082019050919050565b6000613326602983613c15565b91507f4552433732313a206f776e657220717565727920666f72206e6f6e657869737460008301527f656e7420746f6b656e00000000000000000000000000000000000000000000006020830152604082019050919050565b600061338c602083613c15565b91507f4552433732313a206d696e7420746f20746865207a65726f20616464726573736000830152602082019050919050565b60006133cc602c83613c15565b91507f4552433732313a20617070726f76656420717565727920666f72206e6f6e657860008301527f697374656e7420746f6b656e00000000000000000000000000000000000000006020830152604082019050919050565b6000613432602083613c15565b91507f4f776e61626c653a2063616c6c6572206973206e6f7420746865206f776e65726000830152602082019050919050565b6000613472602983613c15565b91507f4552433732313a207472616e73666572206f6620746f6b656e2074686174206960008301527f73206e6f74206f776e00000000000000000000000000000000000000000000006020830152604082019050919050565b60006134d8602f83613c15565b91507f4552433732314d657461646174613a2055524920717565727920666f72206e6f60008301527f6e6578697374656e7420746f6b656e00000000000000000000000000000000006020830152604082019050919050565b600061353e602183613c15565b91507f4552433732313a20617070726f76616c20746f2063757272656e74206f776e6560008301527f72000000000000000000000000000000000000000000000000000000000000006020830152604082019050919050565b60006135a4603183613c15565b91507f4552433732313a207472616e736665722063616c6c6572206973206e6f74206f60008301527f776e6572206e6f7220617070726f7665640000000000000000000000000000006020830152604082019050919050565b600061360a602c83613c15565b91507f455243373231456e756d657261626c653a20676c6f62616c20696e646578206f60008301527f7574206f6620626f756e647300000000000000000000000000000000000000006020830152604082019050919050565b6000613670602583613c15565b91507f526f79616c747920746f74616c2076616c75652073686f756c64206265203c2060008301527f31303030300000000000000000000000000000000000000000000000000000006020830152604082019050919050565b60006136d6601b83613c15565b91507f526563697069656e742073686f756c642062652070726573656e7400000000006000830152602082019050919050565b60408201600082015161371f6000850182612e61565b5060208201516137326020850182613747565b50505050565b61374181613dc2565b82525050565b61375081613dcc565b82525050565b60006137628285612f5e565b915061376e8284612f5e565b91508190509392505050565b600060208201905061378f6000830184612e70565b92915050565b60006080820190506137aa6000830187612e70565b6137b76020830186612e70565b6137c46040830185613738565b81810360608301526137d68184612eec565b905095945050505050565b60006040820190506137f66000830185612e70565b6138036020830184613738565b9392505050565b600060208201905081810360008301526138248184612e7f565b905092915050565b60006020820190506138416000830184612edd565b92915050565b600060208201905081810360008301526138618184612f25565b905092915050565b6000602082019050818103600083015261388281612f8f565b9050919050565b600060208201905081810360008301526138a281612ff5565b9050919050565b600060208201905081810360008301526138c28161305b565b9050919050565b600060208201905081810360008301526138e2816130c1565b9050919050565b6000602082019050818103600083015261390281613101565b9050919050565b6000602082019050818103600083015261392281613167565b9050919050565b60006020820190508181036000830152613942816131a7565b9050919050565b600060208201905081810360008301526139628161320d565b9050919050565b600060208201905081810360008301526139828161324d565b9050919050565b600060208201905081810360008301526139a2816132b3565b9050919050565b600060208201905081810360008301526139c281613319565b9050919050565b600060208201905081810360008301526139e28161337f565b9050919050565b60006020820190508181036000830152613a02816133bf565b9050919050565b60006020820190508181036000830152613a2281613425565b9050919050565b60006020820190508181036000830152613a4281613465565b9050919050565b60006020820190508181036000830152613a62816134cb565b9050919050565b60006020820190508181036000830152613a8281613531565b9050919050565b60006020820190508181036000830152613aa281613597565b9050919050565b60006020820190508181036000830152613ac2816135fd565b9050919050565b60006020820190508181036000830152613ae281613663565b9050919050565b60006020820190508181036000830152613b02816136c9565b9050919050565b6000602082019050613b1e6000830184613738565b92915050565b6000604082019050613b396000830185613738565b8181036020830152613b4b8184612e7f565b90509392505050565b6000604051905081810181811067ffffffffffffffff82111715613b7b57613b7a613f5f565b5b8060405250919050565b600067ffffffffffffffff821115613ba057613b9f613f5f565b5b601f19601f8301169050602081019050919050565b6000819050602082019050919050565b600081519050919050565b600081519050919050565b600081519050919050565b6000602082019050919050565b600082825260208201905092915050565b600082825260208201905092915050565b600082825260208201905092915050565b600081905092915050565b6000613c3c82613dc2565b9150613c4783613dc2565b9250827fffffffffffffffffffffffffffffffffffffffffffffffffffffffffffffffff03821115613c7c57613c7b613ed2565b5b828201905092915050565b6000613c9282613dc2565b9150613c9d83613dc2565b925082613cad57613cac613f01565b5b828204905092915050565b6000613cc382613dc2565b9150613cce83613dc2565b9250817fffffffffffffffffffffffffffffffffffffffffffffffffffffffffffffffff0483118215151615613d0757613d06613ed2565b5b828202905092915050565b6000613d1d82613dc2565b9150613d2883613dc2565b925082821015613d3b57613d3a613ed2565b5b828203905092915050565b6000613d5182613da2565b9050919050565b6000613d6382613da2565b9050919050565b60008115159050919050565b60007fffffffff0000000000000000000000000000000000000000000000000000000082169050919050565b600073ffffffffffffffffffffffffffffffffffffffff82169050919050565b6000819050919050565b60006bffffffffffffffffffffffff82169050919050565b82818337600083830152505050565b60005b83811015613e11578082015181840152602081019050613df6565b83811115613e20576000848401525b50505050565b60006002820490506001821680613e3e57607f821691505b60208210811415613e5257613e51613f30565b5b50919050565b6000613e6382613dc2565b91507fffffffffffffffffffffffffffffffffffffffffffffffffffffffffffffffff821415613e9657613e95613ed2565b5b600182019050919050565b6000613eac82613dc2565b9150613eb783613dc2565b925082613ec757613ec6613f01565b5b828206905092915050565b7f4e487b7100000000000000000000000000000000000000000000000000000000600052601160045260246000fd5b7f4e487b7100000000000000000000000000000000000000000000000000000000600052601260045260246000fd5b7f4e487b7100000000000000000000000000000000000000000000000000000000600052602260045260246000fd5b7f4e487b7100000000000000000000000000000000000000000000000000000000600052604160045260246000fd5b6000601f19601f8301169050919050565b613fa881613d46565b8114613fb357600080fd5b50565b613fbf81613d58565b8114613fca57600080fd5b50565b613fd681613d6a565b8114613fe157600080fd5b50565b613fed81613d76565b8114613ff857600080fd5b50565b61400481613dc2565b811461400f57600080fd5b50565b61401b81613dcc565b811461402657600080fd5b5056fe687474703a2f2f302e302e302e302f7570646174652f6e66742f6d657461646174612f616464792fa26469706673582212209992213614f56802163e60d944b32ef79bc52b8deacf2d2ba71456d04307da4364736f6c63430008000033",
  "immutableReferences": {},
  "source": "// SPDX-License-Identifier: MIT\npragma solidity ^0.8.0;\n\nimport \"@openzeppelin/contracts/token/ERC721/extensions/ERC721Enumerable.sol\";\nimport \"@openzeppelin/contracts/access/Ownable.sol\";\nimport \"@openzeppelin/contracts/utils/Counters.sol\";\nimport \"./@rarible/royalties/contracts/impl/RoyaltiesV2Impl.sol\";\nimport \"./@rarible/royalties/contracts/LibPart.sol\";\nimport \"./@rarible/royalties/contracts/LibRoyaltiesV2.sol\";\n\ncontract BrainYieldMembershipToken is ERC721Enumerable, Ownable, RoyaltiesV2Impl {\n  using Counters for Counters.Counter;\n  Counters.Counter private _tokenIDTracker;\n  bytes4 private constant _INTERFACE_ID_ERC2981 = 0x2a55205a;\n\n  constructor() ERC721(\"BrainYieldMembership\", \"BYM\") {\n  }\n\n  function mint(address _to) public onlyOwner {\n    super._mint(_to, _tokenIDTracker.current());\n    _tokenIDTracker.increment();\n  }\n\n  function setRoyalties(uint _tokenID, address payable _royaltiesRecipientAddress, uint96 _percentageBasisPoints) public onlyOwner {\n    LibPart.Part[] memory _royalties = new LibPart.Part[](1);\n    _royalties[0].value = _percentageBasisPoints;\n    _royalties[0].account = _royaltiesRecipientAddress;\n    _saveRoyalties(_tokenID, _royalties);\n  }\n\n  function royaltyInfo(uint256 _tokenID, uint256 _salePrice) external view returns (address receiver, uint256 royaltyAmount) {\n    LibPart.Part[] memory _royalties = royalties[_tokenID];\n    if (_royalties.length > 0) {\n      return (_royalties[0].account, (_salePrice * _royalties[0].value) / 10000);\n    }\n\n    return (address(0), 0);\n  }\n\n  function supportsInterface(bytes4 interfaceID) public view virtual override(ERC721Enumerable) returns (bool) {\n    if (interfaceID == LibRoyaltiesV2._INTERFACE_ID_ROYALTIES) {\n      return true;\n    }\n\n    if (interfaceID == _INTERFACE_ID_ERC2981) {\n      return true;\n    }\n\n    return super.supportsInterface(interfaceID);\n  }\n\n  function isMember(address _walletAddress) public view returns (bool) {\n    return super.balanceOf(_walletAddress) > 0;\n  }\n\n  function _baseURI() internal view virtual override returns (string memory) {\n    return \"http://0.0.0.0/update/nft/metadata/addy/\";\n  }\n}\n",
  "sourcePath": "/Users/dave/Code/brain-yield/contracts/BrainYieldMembershipToken.sol",
  "compiler": {
    "name": "solc",
    "version": "0.8.0+commit.c7dfd78e.Emscripten.clang"
  },
  "schemaVersion": "3.4.3",
  "updatedAt": "2021-12-08T05:27:24.903Z",
  "networkType": "ethereum",
  "devdoc": {
    "kind": "dev",
    "methods": {
      "approve(address,uint256)": {
        "details": "See {IERC721-approve}."
      },
      "balanceOf(address)": {
        "details": "See {IERC721-balanceOf}."
      },
      "getApproved(uint256)": {
        "details": "See {IERC721-getApproved}."
      },
      "isApprovedForAll(address,address)": {
        "details": "See {IERC721-isApprovedForAll}."
      },
      "name()": {
        "details": "See {IERC721Metadata-name}."
      },
      "owner()": {
        "details": "Returns the address of the current owner."
      },
      "ownerOf(uint256)": {
        "details": "See {IERC721-ownerOf}."
      },
      "renounceOwnership()": {
        "details": "Leaves the contract without owner. It will not be possible to call `onlyOwner` functions anymore. Can only be called by the current owner. NOTE: Renouncing ownership will leave the contract without an owner, thereby removing any functionality that is only available to the owner."
      },
      "safeTransferFrom(address,address,uint256)": {
        "details": "See {IERC721-safeTransferFrom}."
      },
      "safeTransferFrom(address,address,uint256,bytes)": {
        "details": "See {IERC721-safeTransferFrom}."
      },
      "setApprovalForAll(address,bool)": {
        "details": "See {IERC721-setApprovalForAll}."
      },
      "symbol()": {
        "details": "See {IERC721Metadata-symbol}."
      },
      "tokenByIndex(uint256)": {
        "details": "See {IERC721Enumerable-tokenByIndex}."
      },
      "tokenOfOwnerByIndex(address,uint256)": {
        "details": "See {IERC721Enumerable-tokenOfOwnerByIndex}."
      },
      "tokenURI(uint256)": {
        "details": "See {IERC721Metadata-tokenURI}."
      },
      "totalSupply()": {
        "details": "See {IERC721Enumerable-totalSupply}."
      },
      "transferFrom(address,address,uint256)": {
        "details": "See {IERC721-transferFrom}."
      },
      "transferOwnership(address)": {
        "details": "Transfers ownership of the contract to a new account (`newOwner`). Can only be called by the current owner."
      }
    },
    "version": 1
  },
  "userdoc": {
    "kind": "user",
    "methods": {},
    "version": 1
  }
}