{
  "contractName": "BrainYieldMembershipToken",
  "abi": [
    {
      "inputs": [],
      "stateMutability": "nonpayable",
      "type": "constructor"
    },
    {
      "anonymous": false,
      "inputs": [
        {
          "indexed": true,
          "internalType": "address",
          "name": "owner",
          "type": "address"
        },
        {
          "indexed": true,
          "internalType": "address",
          "name": "approved",
          "type": "address"
        },
        {
          "indexed": true,
          "internalType": "uint256",
          "name": "tokenId",
          "type": "uint256"
        }
      ],
      "name": "Approval",
      "type": "event"
    },
    {
      "anonymous": false,
      "inputs": [
        {
          "indexed": true,
          "internalType": "address",
          "name": "owner",
          "type": "address"
        },
        {
          "indexed": true,
          "internalType": "address",
          "name": "operator",
          "type": "address"
        },
        {
          "indexed": false,
          "internalType": "bool",
          "name": "approved",
          "type": "bool"
        }
      ],
      "name": "ApprovalForAll",
      "type": "event"
    },
    {
      "anonymous": false,
      "inputs": [
        {
          "indexed": true,
          "internalType": "address",
          "name": "previousOwner",
          "type": "address"
        },
        {
          "indexed": true,
          "internalType": "address",
          "name": "newOwner",
          "type": "address"
        }
      ],
      "name": "OwnershipTransferred",
      "type": "event"
    },
    {
      "anonymous": false,
      "inputs": [
        {
          "indexed": false,
          "internalType": "uint256",
          "name": "tokenId",
          "type": "uint256"
        },
        {
          "components": [
            {
              "internalType": "address payable",
              "name": "account",
              "type": "address"
            },
            {
              "internalType": "uint96",
              "name": "value",
              "type": "uint96"
            }
          ],
          "indexed": false,
          "internalType": "struct LibPart.Part[]",
          "name": "royalties",
          "type": "tuple[]"
        }
      ],
      "name": "RoyaltiesSet",
      "type": "event"
    },
    {
      "anonymous": false,
      "inputs": [
        {
          "indexed": true,
          "internalType": "address",
          "name": "from",
          "type": "address"
        },
        {
          "indexed": true,
          "internalType": "address",
          "name": "to",
          "type": "address"
        },
        {
          "indexed": true,
          "internalType": "uint256",
          "name": "tokenId",
          "type": "uint256"
        }
      ],
      "name": "Transfer",
      "type": "event"
    },
    {
      "inputs": [
        {
          "internalType": "address",
          "name": "to",
          "type": "address"
        },
        {
          "internalType": "uint256",
          "name": "tokenId",
          "type": "uint256"
        }
      ],
      "name": "approve",
      "outputs": [],
      "stateMutability": "nonpayable",
      "type": "function"
    },
    {
      "inputs": [
        {
          "internalType": "address",
          "name": "owner",
          "type": "address"
        }
      ],
      "name": "balanceOf",
      "outputs": [
        {
          "internalType": "uint256",
          "name": "",
          "type": "uint256"
        }
      ],
      "stateMutability": "view",
      "type": "function",
      "constant": true
    },
    {
      "inputs": [
        {
          "internalType": "uint256",
          "name": "tokenId",
          "type": "uint256"
        }
      ],
      "name": "getApproved",
      "outputs": [
        {
          "internalType": "address",
          "name": "",
          "type": "address"
        }
      ],
      "stateMutability": "view",
      "type": "function",
      "constant": true
    },
    {
      "inputs": [
        {
          "internalType": "uint256",
          "name": "id",
          "type": "uint256"
        }
      ],
      "name": "getRaribleV2Royalties",
      "outputs": [
        {
          "components": [
            {
              "internalType": "address payable",
              "name": "account",
              "type": "address"
            },
            {
              "internalType": "uint96",
              "name": "value",
              "type": "uint96"
            }
          ],
          "internalType": "struct LibPart.Part[]",
          "name": "",
          "type": "tuple[]"
        }
      ],
      "stateMutability": "view",
      "type": "function",
      "constant": true
    },
    {
      "inputs": [
        {
          "internalType": "address",
          "name": "owner",
          "type": "address"
        },
        {
          "internalType": "address",
          "name": "operator",
          "type": "address"
        }
      ],
      "name": "isApprovedForAll",
      "outputs": [
        {
          "internalType": "bool",
          "name": "",
          "type": "bool"
        }
      ],
      "stateMutability": "view",
      "type": "function",
      "constant": true
    },
    {
      "inputs": [],
      "name": "name",
      "outputs": [
        {
          "internalType": "string",
          "name": "",
          "type": "string"
        }
      ],
      "stateMutability": "view",
      "type": "function",
      "constant": true
    },
    {
      "inputs": [],
      "name": "owner",
      "outputs": [
        {
          "internalType": "address",
          "name": "",
          "type": "address"
        }
      ],
      "stateMutability": "view",
      "type": "function",
      "constant": true
    },
    {
      "inputs": [
        {
          "internalType": "uint256",
          "name": "tokenId",
          "type": "uint256"
        }
      ],
      "name": "ownerOf",
      "outputs": [
        {
          "internalType": "address",
          "name": "",
          "type": "address"
        }
      ],
      "stateMutability": "view",
      "type": "function",
      "constant": true
    },
    {
      "inputs": [],
      "name": "renounceOwnership",
      "outputs": [],
      "stateMutability": "nonpayable",
      "type": "function"
    },
    {
      "inputs": [
        {
          "internalType": "address",
          "name": "from",
          "type": "address"
        },
        {
          "internalType": "address",
          "name": "to",
          "type": "address"
        },
        {
          "internalType": "uint256",
          "name": "tokenId",
          "type": "uint256"
        }
      ],
      "name": "safeTransferFrom",
      "outputs": [],
      "stateMutability": "nonpayable",
      "type": "function"
    },
    {
      "inputs": [
        {
          "internalType": "address",
          "name": "from",
          "type": "address"
        },
        {
          "internalType": "address",
          "name": "to",
          "type": "address"
        },
        {
          "internalType": "uint256",
          "name": "tokenId",
          "type": "uint256"
        },
        {
          "internalType": "bytes",
          "name": "_data",
          "type": "bytes"
        }
      ],
      "name": "safeTransferFrom",
      "outputs": [],
      "stateMutability": "nonpayable",
      "type": "function"
    },
    {
      "inputs": [
        {
          "internalType": "address",
          "name": "operator",
          "type": "address"
        },
        {
          "internalType": "bool",
          "name": "approved",
          "type": "bool"
        }
      ],
      "name": "setApprovalForAll",
      "outputs": [],
      "stateMutability": "nonpayable",
      "type": "function"
    },
    {
      "inputs": [],
      "name": "symbol",
      "outputs": [
        {
          "internalType": "string",
          "name": "",
          "type": "string"
        }
      ],
      "stateMutability": "view",
      "type": "function",
      "constant": true
    },
    {
      "inputs": [
        {
          "internalType": "uint256",
          "name": "tokenId",
          "type": "uint256"
        }
      ],
      "name": "tokenURI",
      "outputs": [
        {
          "internalType": "string",
          "name": "",
          "type": "string"
        }
      ],
      "stateMutability": "view",
      "type": "function",
      "constant": true
    },
    {
      "inputs": [
        {
          "internalType": "address",
          "name": "from",
          "type": "address"
        },
        {
          "internalType": "address",
          "name": "to",
          "type": "address"
        },
        {
          "internalType": "uint256",
          "name": "tokenId",
          "type": "uint256"
        }
      ],
      "name": "transferFrom",
      "outputs": [],
      "stateMutability": "nonpayable",
      "type": "function"
    },
    {
      "inputs": [
        {
          "internalType": "address",
          "name": "newOwner",
          "type": "address"
        }
      ],
      "name": "transferOwnership",
      "outputs": [],
      "stateMutability": "nonpayable",
      "type": "function"
    },
    {
      "inputs": [
        {
          "internalType": "address",
          "name": "_to",
          "type": "address"
        }
      ],
      "name": "mint",
      "outputs": [],
      "stateMutability": "nonpayable",
      "type": "function"
    },
    {
      "inputs": [
        {
          "internalType": "uint256",
          "name": "_tokenID",
          "type": "uint256"
        },
        {
          "internalType": "address payable",
          "name": "_royaltiesRecipientAddress",
          "type": "address"
        },
        {
          "internalType": "uint96",
          "name": "_percentageBasisPoints",
          "type": "uint96"
        }
      ],
      "name": "setRoyalties",
      "outputs": [],
      "stateMutability": "nonpayable",
      "type": "function"
    },
    {
      "inputs": [
        {
          "internalType": "uint256",
          "name": "_tokenID",
          "type": "uint256"
        },
        {
          "internalType": "uint256",
          "name": "_salePrice",
          "type": "uint256"
        }
      ],
      "name": "royaltyInfo",
      "outputs": [
        {
          "internalType": "address",
          "name": "receiver",
          "type": "address"
        },
        {
          "internalType": "uint256",
          "name": "royaltyAmount",
          "type": "uint256"
        }
      ],
      "stateMutability": "view",
      "type": "function",
      "constant": true
    },
    {
      "inputs": [
        {
          "internalType": "bytes4",
          "name": "interfaceID",
          "type": "bytes4"
        }
      ],
      "name": "supportsInterface",
      "outputs": [
        {
          "internalType": "bool",
          "name": "",
          "type": "bool"
        }
      ],
      "stateMutability": "view",
      "type": "function",
      "constant": true
    }
  ],
  "bytecode": "0x60806040523480156200001157600080fd5b506040518060400160405280601481526020017f427261696e5969656c644d656d626572736869700000000000000000000000008152506040518060400160405280600381526020017f42594d0000000000000000000000000000000000000000000000000000000000815250816000908051906020019062000096929190620001a6565b508060019080519060200190620000af929190620001a6565b505050620000d2620000c6620000d860201b60201c565b620000e060201b60201c565b620002bb565b600033905090565b6000600660009054906101000a900473ffffffffffffffffffffffffffffffffffffffff16905081600660006101000a81548173ffffffffffffffffffffffffffffffffffffffff021916908373ffffffffffffffffffffffffffffffffffffffff1602179055508173ffffffffffffffffffffffffffffffffffffffff168173ffffffffffffffffffffffffffffffffffffffff167f8be0079c531659141344cd1fd0a4f28419497f9722a3daafe3b4186f6b6457e060405160405180910390a35050565b828054620001b49062000256565b90600052602060002090601f016020900481019282620001d8576000855562000224565b82601f10620001f357805160ff191683800117855562000224565b8280016001018555821562000224579182015b828111156200022357825182559160200191906001019062000206565b5b50905062000233919062000237565b5090565b5b808211156200025257600081600090555060010162000238565b5090565b600060028204905060018216806200026f57607f821691505b602082108114156200028657620002856200028c565b5b50919050565b7f4e487b7100000000000000000000000000000000000000000000000000000000600052602260045260246000fd5b61383e80620002cb6000396000f3fe608060405234801561001057600080fd5b506004361061012c5760003560e01c806370a08231116100ad578063b88d4fde11610071578063b88d4fde1461032e578063c87b56dd1461034a578063cad96cca1461037a578063e985e9c5146103aa578063f2fde38b146103da5761012c565b806370a082311461029c578063715018a6146102cc5780638da5cb5b146102d657806395d89b41146102f4578063a22cb465146103125761012c565b806323b872dd116100f457806323b872dd146101e75780632a55205a1461020357806342842e0e146102345780636352211e146102505780636a627842146102805761012c565b806301ffc9a71461013157806306fdde0314610161578063081812fc1461017f578063095ea7b3146101af578063143094db146101cb575b600080fd5b61014b60048036038101906101469190612606565b6103f6565b6040516101589190613023565b60405180910390f35b6101696104b5565b604051610176919061303e565b60405180910390f35b61019960048036038101906101949190612658565b610547565b6040516101a69190612f71565b60405180910390f35b6101c960048036038101906101c491906125ca565b6105cc565b005b6101e560048036038101906101e09190612681565b6106e4565b005b61020160048036038101906101fc91906124c4565b6108d1565b005b61021d600480360381019061021891906126d0565b610931565b60405161022b929190612fd8565b60405180910390f35b61024e600480360381019061024991906124c4565b610b07565b005b61026a60048036038101906102659190612658565b610b27565b6040516102779190612f71565b60405180910390f35b61029a6004803603810190610295919061245f565b610bd9565b005b6102b660048036038101906102b1919061245f565b610c75565b6040516102c391906132c0565b60405180910390f35b6102d4610d2d565b005b6102de610db5565b6040516102eb9190612f71565b60405180910390f35b6102fc610ddf565b604051610309919061303e565b60405180910390f35b61032c6004803603810190610327919061258e565b610e71565b005b61034860048036038101906103439190612513565b610e87565b005b610364600480360381019061035f9190612658565b610ee9565b604051610371919061303e565b60405180910390f35b610394600480360381019061038f9190612658565b610f90565b6040516103a19190613001565b60405180910390f35b6103c460048036038101906103bf9190612488565b611092565b6040516103d19190613023565b60405180910390f35b6103f460048036038101906103ef919061245f565b611126565b005b600063cad96cca60e01b7bffffffffffffffffffffffffffffffffffffffffffffffffffffffff1916827bffffffffffffffffffffffffffffffffffffffffffffffffffffffff1916141561044e57600190506104b0565b632a55205a60e01b7bffffffffffffffffffffffffffffffffffffffffffffffffffffffff1916827bffffffffffffffffffffffffffffffffffffffffffffffffffffffff191614156104a457600190506104b0565b6104ad8261121e565b90505b919050565b6060600080546104c4906135dd565b80601f01602080910402602001604051908101604052809291908181526020018280546104f0906135dd565b801561053d5780601f106105125761010080835404028352916020019161053d565b820191906000526020600020905b81548152906001019060200180831161052057829003601f168201915b5050505050905090565b600061055282611300565b610591576040517f08c379a0000000000000000000000000000000000000000000000000000000008152600401610588906131c0565b60405180910390fd5b6004600083815260200190815260200160002060009054906101000a900473ffffffffffffffffffffffffffffffffffffffff169050919050565b60006105d782610b27565b90508073ffffffffffffffffffffffffffffffffffffffff168373ffffffffffffffffffffffffffffffffffffffff161415610648576040517f08c379a000000000000000000000000000000000000000000000000000000000815260040161063f90613240565b60405180910390fd5b8073ffffffffffffffffffffffffffffffffffffffff1661066761136c565b73ffffffffffffffffffffffffffffffffffffffff16148061069657506106958161069061136c565b611092565b5b6106d5576040517f08c379a00000000000000000000000000000000000000000000000000000000081526004016106cc90613140565b60405180910390fd5b6106df8383611374565b505050565b6106ec61136c565b73ffffffffffffffffffffffffffffffffffffffff1661070a610db5565b73ffffffffffffffffffffffffffffffffffffffff1614610760576040517f08c379a0000000000000000000000000000000000000000000000000000000008152600401610757906131e0565b60405180910390fd5b6000600167ffffffffffffffff8111156107a3577f4e487b7100000000000000000000000000000000000000000000000000000000600052604160045260246000fd5b6040519080825280602002602001820160405280156107dc57816020015b6107c9612326565b8152602001906001900390816107c15790505b509050818160008151811061081a577f4e487b7100000000000000000000000000000000000000000000000000000000600052603260045260246000fd5b6020026020010151602001906bffffffffffffffffffffffff1690816bffffffffffffffffffffffff16815250508281600081518110610883577f4e487b7100000000000000000000000000000000000000000000000000000000600052603260045260246000fd5b60200260200101516000019073ffffffffffffffffffffffffffffffffffffffff16908173ffffffffffffffffffffffffffffffffffffffff16815250506108cb848261142d565b50505050565b6108e26108dc61136c565b82611748565b610921576040517f08c379a000000000000000000000000000000000000000000000000000000000815260040161091890613260565b60405180910390fd5b61092c838383611826565b505050565b600080600060076000868152602001908152602001600020805480602002602001604051908101604052809291908181526020016000905b82821015610a2b578382906000526020600020016040518060400160405290816000820160009054906101000a900473ffffffffffffffffffffffffffffffffffffffff1673ffffffffffffffffffffffffffffffffffffffff1673ffffffffffffffffffffffffffffffffffffffff1681526020016000820160149054906101000a90046bffffffffffffffffffffffff166bffffffffffffffffffffffff166bffffffffffffffffffffffff168152505081526020019060010190610969565b505050509050600081511115610af75780600081518110610a75577f4e487b7100000000000000000000000000000000000000000000000000000000600052603260045260246000fd5b60200260200101516000015161271082600081518110610abe577f4e487b7100000000000000000000000000000000000000000000000000000000600052603260045260246000fd5b6020026020010151602001516bffffffffffffffffffffffff1686610ae3919061346f565b610aed919061343e565b9250925050610b00565b60008092509250505b9250929050565b610b2283838360405180602001604052806000815250610e87565b505050565b6000806002600084815260200190815260200160002060009054906101000a900473ffffffffffffffffffffffffffffffffffffffff169050600073ffffffffffffffffffffffffffffffffffffffff168173ffffffffffffffffffffffffffffffffffffffff161415610bd0576040517f08c379a0000000000000000000000000000000000000000000000000000000008152600401610bc790613180565b60405180910390fd5b80915050919050565b610be161136c565b73ffffffffffffffffffffffffffffffffffffffff16610bff610db5565b73ffffffffffffffffffffffffffffffffffffffff1614610c55576040517f08c379a0000000000000000000000000000000000000000000000000000000008152600401610c4c906131e0565b60405180910390fd5b610c6881610c636008611a82565b611a90565b610c726008611c5e565b50565b60008073ffffffffffffffffffffffffffffffffffffffff168273ffffffffffffffffffffffffffffffffffffffff161415610ce6576040517f08c379a0000000000000000000000000000000000000000000000000000000008152600401610cdd90613160565b60405180910390fd5b600360008373ffffffffffffffffffffffffffffffffffffffff1673ffffffffffffffffffffffffffffffffffffffff168152602001908152602001600020549050919050565b610d3561136c565b73ffffffffffffffffffffffffffffffffffffffff16610d53610db5565b73ffffffffffffffffffffffffffffffffffffffff1614610da9576040517f08c379a0000000000000000000000000000000000000000000000000000000008152600401610da0906131e0565b60405180910390fd5b610db36000611c74565b565b6000600660009054906101000a900473ffffffffffffffffffffffffffffffffffffffff16905090565b606060018054610dee906135dd565b80601f0160208091040260200160405190810160405280929190818152602001828054610e1a906135dd565b8015610e675780601f10610e3c57610100808354040283529160200191610e67565b820191906000526020600020905b815481529060010190602001808311610e4a57829003601f168201915b5050505050905090565b610e83610e7c61136c565b8383611d3a565b5050565b610e98610e9261136c565b83611748565b610ed7576040517f08c379a0000000000000000000000000000000000000000000000000000000008152600401610ece90613260565b60405180910390fd5b610ee384848484611ea7565b50505050565b6060610ef482611300565b610f33576040517f08c379a0000000000000000000000000000000000000000000000000000000008152600401610f2a90613220565b60405180910390fd5b6000610f3d611f03565b90506000815111610f5d5760405180602001604052806000815250610f88565b80610f6784611f23565b604051602001610f78929190612f4d565b6040516020818303038152906040525b915050919050565b606060076000838152602001908152602001600020805480602002602001604051908101604052809291908181526020016000905b82821015611087578382906000526020600020016040518060400160405290816000820160009054906101000a900473ffffffffffffffffffffffffffffffffffffffff1673ffffffffffffffffffffffffffffffffffffffff1673ffffffffffffffffffffffffffffffffffffffff1681526020016000820160149054906101000a90046bffffffffffffffffffffffff166bffffffffffffffffffffffff166bffffffffffffffffffffffff168152505081526020019060010190610fc5565b505050509050919050565b6000600560008473ffffffffffffffffffffffffffffffffffffffff1673ffffffffffffffffffffffffffffffffffffffff16815260200190815260200160002060008373ffffffffffffffffffffffffffffffffffffffff1673ffffffffffffffffffffffffffffffffffffffff16815260200190815260200160002060009054906101000a900460ff16905092915050565b61112e61136c565b73ffffffffffffffffffffffffffffffffffffffff1661114c610db5565b73ffffffffffffffffffffffffffffffffffffffff16146111a2576040517f08c379a0000000000000000000000000000000000000000000000000000000008152600401611199906131e0565b60405180910390fd5b600073ffffffffffffffffffffffffffffffffffffffff168173ffffffffffffffffffffffffffffffffffffffff161415611212576040517f08c379a000000000000000000000000000000000000000000000000000000000815260040161120990613080565b60405180910390fd5b61121b81611c74565b50565b60007f80ac58cd000000000000000000000000000000000000000000000000000000007bffffffffffffffffffffffffffffffffffffffffffffffffffffffff1916827bffffffffffffffffffffffffffffffffffffffffffffffffffffffff191614806112e957507f5b5e139f000000000000000000000000000000000000000000000000000000007bffffffffffffffffffffffffffffffffffffffffffffffffffffffff1916827bffffffffffffffffffffffffffffffffffffffffffffffffffffffff1916145b806112f957506112f8826120d0565b5b9050919050565b60008073ffffffffffffffffffffffffffffffffffffffff166002600084815260200190815260200160002060009054906101000a900473ffffffffffffffffffffffffffffffffffffffff1673ffffffffffffffffffffffffffffffffffffffff1614159050919050565b600033905090565b816004600083815260200190815260200160002060006101000a81548173ffffffffffffffffffffffffffffffffffffffff021916908373ffffffffffffffffffffffffffffffffffffffff160217905550808273ffffffffffffffffffffffffffffffffffffffff166113e783610b27565b73ffffffffffffffffffffffffffffffffffffffff167f8c5be1e5ebec7d5bd14f71427d1e84f3dd0314c0f7b2291e5b200ac8c7c3b92560405160405180910390a45050565b600080600090505b82518110156116f457600073ffffffffffffffffffffffffffffffffffffffff1683828151811061148f577f4e487b7100000000000000000000000000000000000000000000000000000000600052603260045260246000fd5b60200260200101516000015173ffffffffffffffffffffffffffffffffffffffff1614156114f2576040517f08c379a00000000000000000000000000000000000000000000000000000000081526004016114e9906132a0565b60405180910390fd5b600083828151811061152d577f4e487b7100000000000000000000000000000000000000000000000000000000600052603260045260246000fd5b6020026020010151602001516bffffffffffffffffffffffff161415611588576040517f08c379a000000000000000000000000000000000000000000000000000000000815260040161157f90613120565b60405180910390fd5b8281815181106115c1577f4e487b7100000000000000000000000000000000000000000000000000000000600052603260045260246000fd5b6020026020010151602001516bffffffffffffffffffffffff16826115e691906133e8565b915060076000858152602001908152602001600020838281518110611634577f4e487b7100000000000000000000000000000000000000000000000000000000600052603260045260246000fd5b60200260200101519080600181540180825580915050600190039060005260206000200160009091909190915060008201518160000160006101000a81548173ffffffffffffffffffffffffffffffffffffffff021916908373ffffffffffffffffffffffffffffffffffffffff16021790555060208201518160000160146101000a8154816bffffffffffffffffffffffff02191690836bffffffffffffffffffffffff160217905550505080806116ec9061360f565b915050611435565b506127108110611739576040517f08c379a000000000000000000000000000000000000000000000000000000000815260040161173090613280565b60405180910390fd5b611743838361213a565b505050565b600061175382611300565b611792576040517f08c379a000000000000000000000000000000000000000000000000000000000815260040161178990613100565b60405180910390fd5b600061179d83610b27565b90508073ffffffffffffffffffffffffffffffffffffffff168473ffffffffffffffffffffffffffffffffffffffff16148061180c57508373ffffffffffffffffffffffffffffffffffffffff166117f484610547565b73ffffffffffffffffffffffffffffffffffffffff16145b8061181d575061181c8185611092565b5b91505092915050565b8273ffffffffffffffffffffffffffffffffffffffff1661184682610b27565b73ffffffffffffffffffffffffffffffffffffffff161461189c576040517f08c379a000000000000000000000000000000000000000000000000000000000815260040161189390613200565b60405180910390fd5b600073ffffffffffffffffffffffffffffffffffffffff168273ffffffffffffffffffffffffffffffffffffffff16141561190c576040517f08c379a0000000000000000000000000000000000000000000000000000000008152600401611903906130c0565b60405180910390fd5b611917838383612177565b611922600082611374565b6001600360008573ffffffffffffffffffffffffffffffffffffffff1673ffffffffffffffffffffffffffffffffffffffff168152602001908152602001600020600082825461197291906134c9565b925050819055506001600360008473ffffffffffffffffffffffffffffffffffffffff1673ffffffffffffffffffffffffffffffffffffffff16815260200190815260200160002060008282546119c991906133e8565b92505081905550816002600083815260200190815260200160002060006101000a81548173ffffffffffffffffffffffffffffffffffffffff021916908373ffffffffffffffffffffffffffffffffffffffff160217905550808273ffffffffffffffffffffffffffffffffffffffff168473ffffffffffffffffffffffffffffffffffffffff167fddf252ad1be2c89b69c2b068fc378daa952ba7f163c4a11628f55a4df523b3ef60405160405180910390a4505050565b600081600001549050919050565b600073ffffffffffffffffffffffffffffffffffffffff168273ffffffffffffffffffffffffffffffffffffffff161415611b00576040517f08c379a0000000000000000000000000000000000000000000000000000000008152600401611af7906131a0565b60405180910390fd5b611b0981611300565b15611b49576040517f08c379a0000000000000000000000000000000000000000000000000000000008152600401611b40906130a0565b60405180910390fd5b611b5560008383612177565b6001600360008473ffffffffffffffffffffffffffffffffffffffff1673ffffffffffffffffffffffffffffffffffffffff1681526020019081526020016000206000828254611ba591906133e8565b92505081905550816002600083815260200190815260200160002060006101000a81548173ffffffffffffffffffffffffffffffffffffffff021916908373ffffffffffffffffffffffffffffffffffffffff160217905550808273ffffffffffffffffffffffffffffffffffffffff16600073ffffffffffffffffffffffffffffffffffffffff167fddf252ad1be2c89b69c2b068fc378daa952ba7f163c4a11628f55a4df523b3ef60405160405180910390a45050565b6001816000016000828254019250508190555050565b6000600660009054906101000a900473ffffffffffffffffffffffffffffffffffffffff16905081600660006101000a81548173ffffffffffffffffffffffffffffffffffffffff021916908373ffffffffffffffffffffffffffffffffffffffff1602179055508173ffffffffffffffffffffffffffffffffffffffff168173ffffffffffffffffffffffffffffffffffffffff167f8be0079c531659141344cd1fd0a4f28419497f9722a3daafe3b4186f6b6457e060405160405180910390a35050565b8173ffffffffffffffffffffffffffffffffffffffff168373ffffffffffffffffffffffffffffffffffffffff161415611da9576040517f08c379a0000000000000000000000000000000000000000000000000000000008152600401611da0906130e0565b60405180910390fd5b80600560008573ffffffffffffffffffffffffffffffffffffffff1673ffffffffffffffffffffffffffffffffffffffff16815260200190815260200160002060008473ffffffffffffffffffffffffffffffffffffffff1673ffffffffffffffffffffffffffffffffffffffff16815260200190815260200160002060006101000a81548160ff0219169083151502179055508173ffffffffffffffffffffffffffffffffffffffff168373ffffffffffffffffffffffffffffffffffffffff167f17307eab39ab6107e8899845ad3d59bd9653f200f220920489ca2b5937696c3183604051611e9a9190613023565b60405180910390a3505050565b611eb2848484611826565b611ebe8484848461217c565b611efd576040517f08c379a0000000000000000000000000000000000000000000000000000000008152600401611ef490613060565b60405180910390fd5b50505050565b60606040518060600160405280602881526020016137e160289139905090565b60606000821415611f6b576040518060400160405280600181526020017f300000000000000000000000000000000000000000000000000000000000000081525090506120cb565b600082905060005b60008214611f9d578080611f869061360f565b915050600a82611f96919061343e565b9150611f73565b60008167ffffffffffffffff811115611fdf577f4e487b7100000000000000000000000000000000000000000000000000000000600052604160045260246000fd5b6040519080825280601f01601f1916602001820160405280156120115781602001600182028036833780820191505090505b5090505b600085146120c45760018261202a91906134c9565b9150600a856120399190613658565b603061204591906133e8565b60f81b818381518110612081577f4e487b7100000000000000000000000000000000000000000000000000000000600052603260045260246000fd5b60200101907effffffffffffffffffffffffffffffffffffffffffffffffffffffffffffff1916908160001a905350600a856120bd919061343e565b9450612015565b8093505050505b919050565b60007f01ffc9a7000000000000000000000000000000000000000000000000000000007bffffffffffffffffffffffffffffffffffffffffffffffffffffffff1916827bffffffffffffffffffffffffffffffffffffffffffffffffffffffff1916149050919050565b7f3fa96d7b6bcbfe71ef171666d84db3cf52fa2d1c8afdb1cc8e486177f208b7df828260405161216b9291906132db565b60405180910390a15050565b505050565b600061219d8473ffffffffffffffffffffffffffffffffffffffff16612313565b15612306578373ffffffffffffffffffffffffffffffffffffffff1663150b7a026121c661136c565b8786866040518563ffffffff1660e01b81526004016121e89493929190612f8c565b602060405180830381600087803b15801561220257600080fd5b505af192505050801561223357506040513d601f19601f82011682018060405250810190612230919061262f565b60015b6122b6573d8060008114612263576040519150601f19603f3d011682016040523d82523d6000602084013e612268565b606091505b506000815114156122ae576040517f08c379a00000000000000000000000000000000000000000000000000000000081526004016122a590613060565b60405180910390fd5b805181602001fd5b63150b7a0260e01b7bffffffffffffffffffffffffffffffffffffffffffffffffffffffff1916817bffffffffffffffffffffffffffffffffffffffffffffffffffffffff19161491505061230b565b600190505b949350505050565b600080823b905060008111915050919050565b6040518060400160405280600073ffffffffffffffffffffffffffffffffffffffff16815260200160006bffffffffffffffffffffffff1681525090565b60006123776123728461333c565b61330b565b90508281526020810184848401111561238f57600080fd5b61239a84828561359b565b509392505050565b6000813590506123b181613756565b92915050565b6000813590506123c68161376d565b92915050565b6000813590506123db81613784565b92915050565b6000813590506123f08161379b565b92915050565b6000815190506124058161379b565b92915050565b600082601f83011261241c57600080fd5b813561242c848260208601612364565b91505092915050565b600081359050612444816137b2565b92915050565b600081359050612459816137c9565b92915050565b60006020828403121561247157600080fd5b600061247f848285016123a2565b91505092915050565b6000806040838503121561249b57600080fd5b60006124a9858286016123a2565b92505060206124ba858286016123a2565b9150509250929050565b6000806000606084860312156124d957600080fd5b60006124e7868287016123a2565b93505060206124f8868287016123a2565b925050604061250986828701612435565b9150509250925092565b6000806000806080858703121561252957600080fd5b6000612537878288016123a2565b9450506020612548878288016123a2565b935050604061255987828801612435565b925050606085013567ffffffffffffffff81111561257657600080fd5b6125828782880161240b565b91505092959194509250565b600080604083850312156125a157600080fd5b60006125af858286016123a2565b92505060206125c0858286016123cc565b9150509250929050565b600080604083850312156125dd57600080fd5b60006125eb858286016123a2565b92505060206125fc85828601612435565b9150509250929050565b60006020828403121561261857600080fd5b6000612626848285016123e1565b91505092915050565b60006020828403121561264157600080fd5b600061264f848285016123f6565b91505092915050565b60006020828403121561266a57600080fd5b600061267884828501612435565b91505092915050565b60008060006060848603121561269657600080fd5b60006126a486828701612435565b93505060206126b5868287016123b7565b92505060406126c68682870161244a565b9150509250925092565b600080604083850312156126e357600080fd5b60006126f185828601612435565b925050602061270285828601612435565b9150509250929050565b60006127188383612f00565b60408301905092915050565b61272d8161350f565b82525050565b61273c816134fd565b82525050565b600061274d8261337c565b61275781856133aa565b93506127628361336c565b8060005b8381101561279357815161277a888261270c565b97506127858361339d565b925050600181019050612766565b5085935050505092915050565b6127a981613521565b82525050565b60006127ba82613387565b6127c481856133bb565b93506127d48185602086016135aa565b6127dd81613745565b840191505092915050565b60006127f382613392565b6127fd81856133cc565b935061280d8185602086016135aa565b61281681613745565b840191505092915050565b600061282c82613392565b61283681856133dd565b93506128468185602086016135aa565b80840191505092915050565b600061285f6032836133cc565b91507f4552433732313a207472616e7366657220746f206e6f6e20455243373231526560008301527f63656976657220696d706c656d656e74657200000000000000000000000000006020830152604082019050919050565b60006128c56026836133cc565b91507f4f776e61626c653a206e6577206f776e657220697320746865207a65726f206160008301527f64647265737300000000000000000000000000000000000000000000000000006020830152604082019050919050565b600061292b601c836133cc565b91507f4552433732313a20746f6b656e20616c7265616479206d696e746564000000006000830152602082019050919050565b600061296b6024836133cc565b91507f4552433732313a207472616e7366657220746f20746865207a65726f2061646460008301527f72657373000000000000000000000000000000000000000000000000000000006020830152604082019050919050565b60006129d16019836133cc565b91507f4552433732313a20617070726f766520746f2063616c6c6572000000000000006000830152602082019050919050565b6000612a11602c836133cc565b91507f4552433732313a206f70657261746f7220717565727920666f72206e6f6e657860008301527f697374656e7420746f6b656e00000000000000000000000000000000000000006020830152604082019050919050565b6000612a776020836133cc565b91507f526f79616c74792076616c75652073686f756c6420626520706f7369746976656000830152602082019050919050565b6000612ab76038836133cc565b91507f4552433732313a20617070726f76652063616c6c6572206973206e6f74206f7760008301527f6e6572206e6f7220617070726f76656420666f7220616c6c00000000000000006020830152604082019050919050565b6000612b1d602a836133cc565b91507f4552433732313a2062616c616e636520717565727920666f7220746865207a6560008301527f726f2061646472657373000000000000000000000000000000000000000000006020830152604082019050919050565b6000612b836029836133cc565b91507f4552433732313a206f776e657220717565727920666f72206e6f6e657869737460008301527f656e7420746f6b656e00000000000000000000000000000000000000000000006020830152604082019050919050565b6000612be96020836133cc565b91507f4552433732313a206d696e7420746f20746865207a65726f20616464726573736000830152602082019050919050565b6000612c29602c836133cc565b91507f4552433732313a20617070726f76656420717565727920666f72206e6f6e657860008301527f697374656e7420746f6b656e00000000000000000000000000000000000000006020830152604082019050919050565b6000612c8f6020836133cc565b91507f4f776e61626c653a2063616c6c6572206973206e6f7420746865206f776e65726000830152602082019050919050565b6000612ccf6029836133cc565b91507f4552433732313a207472616e73666572206f6620746f6b656e2074686174206960008301527f73206e6f74206f776e00000000000000000000000000000000000000000000006020830152604082019050919050565b6000612d35602f836133cc565b91507f4552433732314d657461646174613a2055524920717565727920666f72206e6f60008301527f6e6578697374656e7420746f6b656e00000000000000000000000000000000006020830152604082019050919050565b6000612d9b6021836133cc565b91507f4552433732313a20617070726f76616c20746f2063757272656e74206f776e6560008301527f72000000000000000000000000000000000000000000000000000000000000006020830152604082019050919050565b6000612e016031836133cc565b91507f4552433732313a207472616e736665722063616c6c6572206973206e6f74206f60008301527f776e6572206e6f7220617070726f7665640000000000000000000000000000006020830152604082019050919050565b6000612e676025836133cc565b91507f526f79616c747920746f74616c2076616c75652073686f756c64206265203c2060008301527f31303030300000000000000000000000000000000000000000000000000000006020830152604082019050919050565b6000612ecd601b836133cc565b91507f526563697069656e742073686f756c642062652070726573656e7400000000006000830152602082019050919050565b604082016000820151612f166000850182612724565b506020820151612f296020850182612f3e565b50505050565b612f3881613579565b82525050565b612f4781613583565b82525050565b6000612f598285612821565b9150612f658284612821565b91508190509392505050565b6000602082019050612f866000830184612733565b92915050565b6000608082019050612fa16000830187612733565b612fae6020830186612733565b612fbb6040830185612f2f565b8181036060830152612fcd81846127af565b905095945050505050565b6000604082019050612fed6000830185612733565b612ffa6020830184612f2f565b9392505050565b6000602082019050818103600083015261301b8184612742565b905092915050565b600060208201905061303860008301846127a0565b92915050565b6000602082019050818103600083015261305881846127e8565b905092915050565b6000602082019050818103600083015261307981612852565b9050919050565b60006020820190508181036000830152613099816128b8565b9050919050565b600060208201905081810360008301526130b98161291e565b9050919050565b600060208201905081810360008301526130d98161295e565b9050919050565b600060208201905081810360008301526130f9816129c4565b9050919050565b6000602082019050818103600083015261311981612a04565b9050919050565b6000602082019050818103600083015261313981612a6a565b9050919050565b6000602082019050818103600083015261315981612aaa565b9050919050565b6000602082019050818103600083015261317981612b10565b9050919050565b6000602082019050818103600083015261319981612b76565b9050919050565b600060208201905081810360008301526131b981612bdc565b9050919050565b600060208201905081810360008301526131d981612c1c565b9050919050565b600060208201905081810360008301526131f981612c82565b9050919050565b6000602082019050818103600083015261321981612cc2565b9050919050565b6000602082019050818103600083015261323981612d28565b9050919050565b6000602082019050818103600083015261325981612d8e565b9050919050565b6000602082019050818103600083015261327981612df4565b9050919050565b6000602082019050818103600083015261329981612e5a565b9050919050565b600060208201905081810360008301526132b981612ec0565b9050919050565b60006020820190506132d56000830184612f2f565b92915050565b60006040820190506132f06000830185612f2f565b81810360208301526133028184612742565b90509392505050565b6000604051905081810181811067ffffffffffffffff8211171561333257613331613716565b5b8060405250919050565b600067ffffffffffffffff82111561335757613356613716565b5b601f19601f8301169050602081019050919050565b6000819050602082019050919050565b600081519050919050565b600081519050919050565b600081519050919050565b6000602082019050919050565b600082825260208201905092915050565b600082825260208201905092915050565b600082825260208201905092915050565b600081905092915050565b60006133f382613579565b91506133fe83613579565b9250827fffffffffffffffffffffffffffffffffffffffffffffffffffffffffffffffff0382111561343357613432613689565b5b828201905092915050565b600061344982613579565b915061345483613579565b925082613464576134636136b8565b5b828204905092915050565b600061347a82613579565b915061348583613579565b9250817fffffffffffffffffffffffffffffffffffffffffffffffffffffffffffffffff04831182151516156134be576134bd613689565b5b828202905092915050565b60006134d482613579565b91506134df83613579565b9250828210156134f2576134f1613689565b5b828203905092915050565b600061350882613559565b9050919050565b600061351a82613559565b9050919050565b60008115159050919050565b60007fffffffff0000000000000000000000000000000000000000000000000000000082169050919050565b600073ffffffffffffffffffffffffffffffffffffffff82169050919050565b6000819050919050565b60006bffffffffffffffffffffffff82169050919050565b82818337600083830152505050565b60005b838110156135c85780820151818401526020810190506135ad565b838111156135d7576000848401525b50505050565b600060028204905060018216806135f557607f821691505b60208210811415613609576136086136e7565b5b50919050565b600061361a82613579565b91507fffffffffffffffffffffffffffffffffffffffffffffffffffffffffffffffff82141561364d5761364c613689565b5b600182019050919050565b600061366382613579565b915061366e83613579565b92508261367e5761367d6136b8565b5b828206905092915050565b7f4e487b7100000000000000000000000000000000000000000000000000000000600052601160045260246000fd5b7f4e487b7100000000000000000000000000000000000000000000000000000000600052601260045260246000fd5b7f4e487b7100000000000000000000000000000000000000000000000000000000600052602260045260246000fd5b7f4e487b7100000000000000000000000000000000000000000000000000000000600052604160045260246000fd5b6000601f19601f8301169050919050565b61375f816134fd565b811461376a57600080fd5b50565b6137768161350f565b811461378157600080fd5b50565b61378d81613521565b811461379857600080fd5b50565b6137a48161352d565b81146137af57600080fd5b50565b6137bb81613579565b81146137c657600080fd5b50565b6137d281613583565b81146137dd57600080fd5b5056fe687474703a2f2f302e302e302e302f7570646174652f6e66742f6d657461646174612f616464792fa2646970667358221220c42b6fdf5518866dffd252f09e6acf70eecbf5cc776edb2bf143159f6b38389764736f6c63430008000033",
  "immutableReferences": {},
  "source": "// SPDX-License-Identifier: MIT\npragma solidity ^0.8.0;\n\nimport \"@openzeppelin/contracts/token/ERC721/ERC721.sol\";\nimport \"@openzeppelin/contracts/access/Ownable.sol\";\nimport \"@openzeppelin/contracts/utils/Counters.sol\";\nimport \"./@rarible/royalties/contracts/impl/RoyaltiesV2Impl.sol\";\nimport \"./@rarible/royalties/contracts/LibPart.sol\";\nimport \"./@rarible/royalties/contracts/LibRoyaltiesV2.sol\";\n\ncontract BrainYieldMembershipToken is ERC721, Ownable, RoyaltiesV2Impl {\n  using Counters for Counters.Counter;\n  Counters.Counter private _tokenIDTracker;\n  bytes4 private constant _INTERFACE_ID_ERC2981 = 0x2a55205a;\n\n  constructor() ERC721(\"BrainYieldMembership\", \"BYM\") {\n  }\n\n  function mint(address _to) public onlyOwner {\n    super._mint(_to, _tokenIDTracker.current());\n    _tokenIDTracker.increment();\n  }\n\n  function setRoyalties(uint _tokenID, address payable _royaltiesRecipientAddress, uint96 _percentageBasisPoints) public onlyOwner {\n    LibPart.Part[] memory _royalties = new LibPart.Part[](1);\n    _royalties[0].value = _percentageBasisPoints;\n    _royalties[0].account = _royaltiesRecipientAddress;\n    _saveRoyalties(_tokenID, _royalties);\n  }\n\n  function royaltyInfo(uint256 _tokenID, uint256 _salePrice) external view returns (address receiver, uint256 royaltyAmount) {\n    LibPart.Part[] memory _royalties = royalties[_tokenID];\n    if (_royalties.length > 0) {\n      return (_royalties[0].account, (_salePrice * _royalties[0].value) / 10000);\n    }\n\n    return (address(0), 0);\n  }\n\n  function supportsInterface(bytes4 interfaceID) public view virtual override(ERC721) returns (bool) {\n    if (interfaceID == LibRoyaltiesV2._INTERFACE_ID_ROYALTIES) {\n      return true;\n    }\n\n    if (interfaceID == _INTERFACE_ID_ERC2981) {\n      return true;\n    }\n\n    return super.supportsInterface(interfaceID);\n  }\n\n  function _baseURI() internal view virtual override returns (string memory) {\n    return \"http://0.0.0.0/update/nft/metadata/addy/\";\n  }\n}\n",
  "sourcePath": "/Users/dave/Code/brain-yield/contracts/BrainYieldMembershipToken.sol",
  "compiler": {
    "name": "solc",
    "version": "0.8.0+commit.c7dfd78e.Emscripten.clang"
  },
  "schemaVersion": "3.4.3",
  "updatedAt": "2021-12-08T03:18:10.778Z",
  "networkType": "ethereum",
  "devdoc": {
    "kind": "dev",
    "methods": {
      "approve(address,uint256)": {
        "details": "See {IERC721-approve}."
      },
      "balanceOf(address)": {
        "details": "See {IERC721-balanceOf}."
      },
      "getApproved(uint256)": {
        "details": "See {IERC721-getApproved}."
      },
      "isApprovedForAll(address,address)": {
        "details": "See {IERC721-isApprovedForAll}."
      },
      "name()": {
        "details": "See {IERC721Metadata-name}."
      },
      "owner()": {
        "details": "Returns the address of the current owner."
      },
      "ownerOf(uint256)": {
        "details": "See {IERC721-ownerOf}."
      },
      "renounceOwnership()": {
        "details": "Leaves the contract without owner. It will not be possible to call `onlyOwner` functions anymore. Can only be called by the current owner. NOTE: Renouncing ownership will leave the contract without an owner, thereby removing any functionality that is only available to the owner."
      },
      "safeTransferFrom(address,address,uint256)": {
        "details": "See {IERC721-safeTransferFrom}."
      },
      "safeTransferFrom(address,address,uint256,bytes)": {
        "details": "See {IERC721-safeTransferFrom}."
      },
      "setApprovalForAll(address,bool)": {
        "details": "See {IERC721-setApprovalForAll}."
      },
      "symbol()": {
        "details": "See {IERC721Metadata-symbol}."
      },
      "tokenURI(uint256)": {
        "details": "See {IERC721Metadata-tokenURI}."
      },
      "transferFrom(address,address,uint256)": {
        "details": "See {IERC721-transferFrom}."
      },
      "transferOwnership(address)": {
        "details": "Transfers ownership of the contract to a new account (`newOwner`). Can only be called by the current owner."
      }
    },
    "version": 1
  },
  "userdoc": {
    "kind": "user",
    "methods": {},
    "version": 1
  }
}