{
  "contractName": "LibPart",
  "abi": [
    {
      "inputs": [],
      "name": "TYPE_HASH",
      "outputs": [
        {
          "internalType": "bytes32",
          "name": "",
          "type": "bytes32"
        }
      ],
      "stateMutability": "view",
      "type": "function"
    }
  ],
  "bytecode": "0x60dc610052600b82828239805160001a607314610045577f4e487b7100000000000000000000000000000000000000000000000000000000600052600060045260246000fd5b30600052607381538281f3fe730000000000000000000000000000000000000000301460806040526004361060335760003560e01c806364d4c819146038575b600080fd5b603e6052565b604051604991906083565b60405180910390f35b7f397e04204c1e1a60ee8724b71f8244e10ab5f2e9009854d80f602bda21b59ebb81565b607d81609c565b82525050565b6000602082019050609660008301846076565b92915050565b600081905091905056fea2646970667358221220ace44abda582c0a47d2098dbae2c108481f190349378992ac0b19ef91c85d23b64736f6c63430008000033",
  "immutableReferences": {},
  "source": "// SPDX-License-Identifier: MIT\n\npragma solidity ^0.8.0;\n\nlibrary LibPart {\n  bytes32 public constant TYPE_HASH = keccak256(\"Part(address account,uint96 value)\");\n\n  struct Part {\n    address payable account;\n    uint96 value;\n  }\n\n  function hash(Part memory part) internal pure returns (bytes32) {\n    return keccak256(abi.encode(TYPE_HASH, part.account, part.value));\n  }\n}",
  "sourcePath": "/Users/dave/Code/brain-yield/contracts/@rarible/royalties/contracts/LibPart.sol",
  "compiler": {
    "name": "solc",
    "version": "0.8.0+commit.c7dfd78e.Emscripten.clang"
  },
  "schemaVersion": "3.4.3",
  "updatedAt": "2021-12-07T22:50:38.776Z",
  "devdoc": {
    "kind": "dev",
    "methods": {},
    "version": 1
  },
  "userdoc": {
    "kind": "user",
    "methods": {},
    "version": 1
  }
}